:020000000C945E
:1000020061000C9400000C9400000C9400000C940D
:1000120000000C9400000C9400000C9400000C945E
:1000220000000C9400000C9400000C9400000C944E
:1000320000000C9400000C9400000C9400000C943E
:1000420000000C9400000C9400000C9400000C942E
:1000520000001027E80364000A00010000100001FC
:100062001000010054656D70206973204C6F772079
:100072003A20253032750054656D70206973204D29
:100082006F646572617465203A20253032750054C0
:10009200656D702069732048696768203A202530B1
:1000A2003275000080C001002D4E414E00494E467F
:1000B200000002006101A60001006501A800000025
:1000C200F894EE27ECBBF1E0FBBFEBBFE5BF8DE0A0
:1000D200A2E0BB27ED938A95E9F780E094E0A0E6E1
:1000E200ED930197E9F7E4EBF0E0859195910097A4
:1000F20061F0A591B59105901590BF01F0010590B1
:100102000D920197E1F7FB01F0CFEFE5EDBFE4E0DF
:10011200EEBFC0E6D1E00C949600E0ECE6B9349B69
:10012200FECF349AE4B1F5B10895E0E0EABBEBBB4F
:10013200EFEFE4BBE0E0E5BBE0ECE7B9369AA9E11A
:100142000E948C01EADFDF01E4E0F0E00E94EB03B1
:100152002F01E4E1F0E04E165F065CF40E94890391
:10016200E6E6F0E00E948E03A89A0E949C03A898FB
:1001720025C0E4E1F0E0E415F5052CF4EEE1F0E051
:100182004E165F060CF00BC00E948903E9E7F0E00F
:100192000E948E03A99A0E949C03A9980FC0EEE1C7
:1001A200F0E0E415F50554F40E948903E1E9F0E07A
:1001B2000E948E03AA9A0E949C03AA98A0E6B1E02C
:1001C2000E946A01A4E6B0E00E9407040E943D0179
:1001D200E0E0E5BBB7CFFFCFFFE0FA95F1F7089576
:1001E200A7B3AF70A7BBC19AC098F6DFC29AF4DF7B
:1001F200A6B3C298F1DFC29AEFDFC298A7FDF5CF8E
:100202000895A07FAB2BA8BBC29A0E94ED00C298B2
:100212000E94ED000895AA93C198A7B3A76FA7BB48
:10022200B8B3BF70A881EDDFA881A295EADFC19AB9
:100232000C94BD01C29A0E94ED00E6B3C2980E94DE
:10024200ED00E07F08950E94ED00F4DFAE2FF2DFB3
:10025200C198E295EA2B0895AA930E94F100E881E1
:10026200F0E0EF59FE4FE081A981AE0F0E940C0130
:1002720079806880229608950E94F100A2E00E948F
:100282000C010E94F100ACE00E940C010E94F100FE
:10029200A1E00E940C01E0E06E2E7E2E0895AA934A
:1002A200EF93FF93A8816894AA3019F0E894791427
:1002B20030F06394E0E0EA93A62DCEDF36F073943B
:1002C2008FDFC09AA8810E940C01FF91EF910C94DC
:1002D200BD01BA93AA931A93A981BA81ED91A98318
:1002E200BA831E2FE03019F0A12FD9DFF5CF188184
:1002F20023960895AA27BB271197F1F70895AA9389
:10030200C198A7B3A76FA7BBB8B3BF70A8810E945B
:100312000201C19A31C0AA93C298C0989880E8811C
:10032200E058E0936301E881E054E09364010E94A5
:10033200A0030E94A0030E94A003DCDFA0E2DFDF93
:10034200D9DFA8E20E94A503A4E00E94A503A5E8C4
:100352000E94A503A7B3AF70A7BBC19A0E94240154
:10036200E53011F0E0E008C00E94F100A6E00E9432
:100372000C010E943D01E1E0219608950E94C6030E
:100382009D015E811296ED91FC911197309741F19A
:10039200D9011496ED91FC9111978F01309759F084
:1003A2000230E0E01E0780F0F80131978F01D90199
:1003B2001496ED93FC93D9011296ED91FD9131962D
:1003C200FE93EE9331975083D901ED91FC911197F1
:1003D200FF232AF0ED91FD913196FE93EE9305C035
:1003E200D901EFEFFFEFED93FC930E94CD03279627
:1003F2000895BA93AA9326970E94C60310E0AC858B
:10040200BD85E0E0F0E0ED93FC93EA89FB8931964B
:10041200EA8BFB8B3197E4912E2FE03009F41EC159
:10042200E12FE03039F4253211F411E002C00E94CC
:10043200A90313C1E130A9F4253219F40E94A903DA
:100442000BC112E040E000E02D3211F401E005C1E1
:100452002B3211F44BE201C1203211F440E2FDC013
:1004620002C0E23039F450E013E0203311F40068A6
:10047200F4C003C0E33009F0F0C0203310F02A3397
:1004820008F007C0AAE05A9F502DE22FE0535E0FFA
:10049200E4C0E22FE33649F40E94B003E889F98907
:1004A200A481AA930E94B603D7C0E33741F40E9405
:1004B200B0030E94BC030E9470031E2F0AC0E037E3
:1004C20061F40E94B0030E94BC030E947C031E2FB1
:1004D200086002600F7730E03DC0E43611F0E93683
:1004E20011F4046002C0E53731F4E4E5F0E0EE8394
:1004F200FF8315E00CC0E83511F4086003C0E8374B
:1005020009F0AAC0EEE5F0E0EE83FF8314E002FFFB
:1005120017C00E94B003A889B9891496ED91FD9184
:10052200EA87FB87AB85AA232AF40E94D403EA87D1
:10053200FB874DE2403011F01F5F01C00B7F0AC004
:100542000E94B003A889B9891496ED91FC91119784
:10055200EA87FB8700FD11C0151778F407FF08C072
:1005620002FF04C00B7F242F115001C020E301C001
:1005720020E20E94A9035150EFCF312F01FF17C093
:100582003030A1F003FF06C0EE81FF812591EE839A
:10059200FF8305C0AE81BF812D91AE83BF830E94D0
:1005A200A903503009F051503150EACF4BC020E33B
:1005B200EE81FF810E94FE03E887F987EE81FF81C9
:1005C2003296EE83FF83E885F985AA85BB85AE174F
:1005D200BF0750F02F5FA885B985EA85FB85EA1B26
:1005E200FB0BEA87FB87EFCF2A3328F003FF02C019
:1005F200295F01C0295D04FD1AC0213320F4A885BA
:10060200B985119709F409C0531710F000FF01C012
:1006120013C020E207FF0BC020E3006102FF07C006
:100622000B7F4A930E94B603503009F051500E944A
:10063200A903503009F051503150A885B98512975D
:1006420008F0B5CF00FF08C0503031F05150E0E261
:10065200EA930E94B603F8CF10E0D7CEAC85BD85F1
:10066200ED91FD910E94CD0364960895FF92F82EBC
:1006720026970E94C603FE010024EF0DF01D468559
:100682005785042E052A19F4EFEFFFEF23C0DE0190
:1006920018960024AF0DB01D8D0148875987E0E000
:1006A200EA87EB87DE011C960024AF0DB01DED91A9
:1006B200FD91FA93EA931A930A93EFEBF1E0FA931E
:1006C200EA93DE011C9695DE9F01A885B985E0E0DC
:1006D200EC93F9010E94CD032C96FF900895BA93F2
:1006E200AA93A991B991EE27FF276D91662311F084
:1006F2003196FBCF0895BA93AA93AA27BB27E99113
:10070200F9910590002011F01196FBCFFD0108959B
:10071200E0E6F1E0FA93EA930895FA93EA93F2019C
:100722006F2F660F660B762F0E94020484E00E94F0
:10073200370328960895A9E1B0E00C9407040E94BB
:100742007B01A0E30C9480010E940C010C947B01BC
:100752002A93AD85BE85EF85F88909950895E889C4
:10076200F9893497E88BF98B0895AD85BE85EF85BD
:10077200F88909950895A889B9891496ED91FD9192
:10078200EE83FF83AE81BF8108955A934A933A93D1
:100792002A931A930A9308955D814C813B812A81A1
:1007A200198108810895F195E195F040089500249A
:1007B200112490E1AA0FBB1F001C111C0E1A1F0A64
:1007C20018F40E0E1F1E01C0A1609A9599F7FD0143
:1007D200D001089504D0EBDF0EF4E5DF0895E8942C
:1007E200F7FF02C0E0DF6894B7FF06C0B195A1959C
:1007F200B04000F8039400FA08950590F491E02DBA
:1008020008957A936A93FA93EA930895109639F0C9
:10081200A8958AEF90E00197F1F71197C9F708952B
:00000001FF
