:0C0000000C9430000C9400000C940000E4
:10000C000C9400000C9400000C9400000C94000064
:10001C000C9400000C9400000C9400000C94000054
:10002C000C9400000C9400000C9400000C94000044
:10003C000C9400000C9400000C9400000C94000034
:10004C000C9400000C94000000000001040004005B
:10005C0054000000F894EE27ECBBF1E0FBBFEBBFC3
:10006C00E5BF8DE0A2E0BB27ED938A95E9F780E030
:10007C0094E0A0E6ED930197E9F7E8E5F0E08591CF
:10008C009591009761F0A591B59105901590BF01E0
:10009C00F00105900D920197E1F7FB01F0CFEFE530
:1000AC00EDBFE4E0EEBFC0E6D1E00C9474008099A3
:1000BC0003C058D0809B0CC00EC0819903C052D095
:1000CC00819B06C008C0829906C04CD0829903C09F
:1000DC00E1E0F0E00895E0E0F0E00895EFEFE7BB39
:1000EC00E0E0E8BBE1BBE7E0E2BBE1DF3097E9F33E
:1000FC00A8ECB0E00E94CC00E1E0E71529F4E52D76
:10010C00A1E00E94BC0007C0E1E0E61529F4E52D52
:10011C00A0E80E94C4004E2E48BA5394E8E0E515BE
:10012C0009F45524CADF309761F0E1E0E71519F4C2
:10013C0077246E2E05C0E1E0E61519F466247E2EB8
:10014C005524C1DF309719F0E0E0E8BB05C0A2E30D
:10015C00B0E00E94CC00D0CFA8ECB0E00E94CC0064
:10016C00C4CFFFCFA9E1B0E00C94CC00EE230E2E4F
:10017C00EA2F19F0EE0F0A94E9F70895EE230E2EEC
:10018C00EA2F19F0E6950A94E9F70895109639F0DC
:10019C00A8958AEF90E00197F1F71197C9F70895A8
:00000001FF
