:0E0000000C9431000C9400000C9400000C9441
:10000E0000000C9400000C9400000C9400000C9462
:10001E0000000C9400000C9400000C9400000C9452
:10002E0000000C9400000C9400000C9400000C9442
:10003E0000000C9400000C9400000C9400000C9432
:10004E0000000C940000000000003F065B4F666D40
:10005E007D077F67F894EE27ECBBF1E0FBBFEBBFAB
:10006E00E5BF8DE0A2E0BB27ED938A95E9F780E02E
:10007E0094E0A0E6ED930197E9F7EFE5EDBFE4E03C
:10008E00EEBFC0E6D1E00C944C00EFEFEABBE0E02F
:10009E00EBBBEFEFE4BBE0E0E5BBEFEFE1BBE0E095
:1000AE00E2BB2E978EE060E070E0E4E5F0E052D027
:1000BE00E4E0EBBBEC81E5BBE0E0EA83EB83AA81F5
:1000CE00BB811F9754F423D011F4ED8135D0EA8112
:1000DE00FB813196EA83FB83F2CF33D0E1E0EBBBB9
:1000EE00EC812AD0E0E0EA83EB83AA81BB811F97E3
:1000FE0054F40DD011F4ED811FD0EA81FB813196BD
:10010E00EA83FB83F2CF1DD02E96CBCFFFCFE881B3
:10011E00F981DE011496AE0FBF1FEC91E2BBA8EE83
:10012E00B3E00E94BD00E881F9813196E883F9833E
:10013E00A881B9811A970895E5BBE0E0E883E983C9
:10014E000895E2E0EBBBEC85E5BBE2BBA8E8B3E1CA
:10015E000C94BD00AF93BF93DB01AC0FBD1F059098
:10016E000D928A95E1F7BF91AF910895109639F0EF
:10017E00A8958AEF90E00197F1F71197C9F70895C6
:00000001FF
