:020000000C945E
:100002003E000C9400000C9400000C9400000C9430
:1000120000000C9400000C9400000C9400000C945E
:1000220000000C9400000C9400000C9400000C944E
:1000320000000C9400000C9400000C9400000C943E
:1000420000000C9400000C9400000C9400000C942E
:1000520000000000000000008888888888008888E6
:10006200FF0C773F8CBBFB0FFF8F80C0E0F0F8FCEA
:10007200FEFF3C42A581A599423CF894EE27ECBBD9
:10008200F1E0FBBFEBBFE5BF8DE0A2E0BB27ED9344
:100092008A95E9F780E094E0A0E6ED930197E9F70D
:1000A200EFE5EDBFE4E0EEBFC0E6D1E00C9459000D
:1000B200EFEFEABBE0E0EBBBEFEFE1BBE0E0E2BB7E
:1000C200A89788E260E070E0E4E5F0E063D0E0E069
:1000D200EA83EB83AA81BB811A97C4F43FD0A8813B
:1000E200B981A436E0E0BE075CF4E881F981DE0163
:1000F200909648D0E881F9813196E883F983EFCF71
:10010200EA81FB813196EA83FB83E4CFE0E0EBBB3B
:10011200A8EBBBE00E94D700E9E0F0E0EA83FB83B2
:10012200AB81AA23C2F01AD0A881B981A436E0E03B
:10013200BE075CF4E881F981DE01589623D0E8819C
:10014200F9813196E883F983EFCFEA81FB81319718
:10015200EA83FB83E5CFA896B3CFFFCFEA81FB8189
:10016200DE011E96AE0FBF1FEC91E8BBEA81FB8158
:10017200DE011496AE0FBF1FEC91E2BBE0E0E88314
:10018200E9830895AE0FBF1FEC91EBBBAAE0B0E08C
:100192000C94D700AF93BF93DB01AC0FBD1F05904A
:1001A2000D928A95E1F7BF91AF910895109639F0BB
:1001B200A8958AEF90E00197F1F71197C9F7089592
:00000001FF
